S01300005461736B5F69645F3031302E7372656362
S11300000C942A000C943C000C943C000C943C008E
S11300100C943C000C943C000C943C000C943C006C
S11300200C943C000C943C000C943C000C943C005C
S11300300C943C000C943C000C943C000C943C004C
S11300400C943C000C943C000C943C000C943C003C
S11300500C943C0011241FBECFE5D4E0DEBFCDBF1D
S113006020E0A0E6B0E001C01D92A236B207E1F79D
S11300700E943F000C9461000C94000008950E94BB
S113008044000E945400FDCF599A8AB188618AB90C
S113009080B5866880BD10BC8CE089B9109261007F
S11300A081E080936000089580916000813019F0B0
S11300B00E943E0008955F9BFECF8CB18093610047
S10900C00895F894FFCF3F
S9030000FC
