S01300005461736B5F69645F3030332E7372656360
S11300000C942A000C943C000C943C000C943C008E
S11300100C943C000C943C000C943E000C943C006A
S11300200C943C000C943C000C943C000C943C005C
S11300300C943C000C943C000C943C000C943C004C
S11300400C943C000C943C000C943C000C943C003C
S11300500C943C0011241FBECFE5D4E0DEBFCDBF1D
S113006020E0A0E6B0E001C01D92A136B207E1F79E
S11300700E945D000C9475000C9400001F920F9276
S11300800FB60F9211248F9381E0809360008F91BB
S11300900F900FBE0F901F901895F8941DBC1CBCB8
S11300A089E09DE39BBD8ABD89B7806189BF78944F
S11300B088E08FBD8BE08EBD089587E087BB18BABA
S11300C00E944D0031E022E094E080916000813094
S11300D0E1F788B3832788BB88B3822788BB88B3BA
S11100E0892788BB10926000F0CFF894FFCF00
S9030000FC
